:020000040800F2
:10000000F82200200D030008FB24000859220008F4
:10001000F92400084306000805320008000000002B
:100020000000000000000000000000002D02000899
:10003000A30600080000000089020008B927000894
:1000400027030008270300082703000827030008E8
:1000500027030008270300082703000827030008D8
:1000600027030008270300082703000827030008C8
:10007000270300082703000845060008510600086A
:100080005D0600086906000827030008270300082A
:100090002703000827030008270300082703000898
:1000A0002703000827030008270300082703000888
:1000B00027030008000000000000000027030008DC
:1000C00027030008000000000000000027030008CC
:1000D00000000000270300082703000800000000BC
:1000E00027030008270300080000000000000000AC
:1000F0000000000000000000000000000000000000
:1001000000000000000000000000000027030008BD
:100110000000000000000000592800082703000824
:100120002703000827030008270300082703000807
:10013000270300080000000000000000000000008D
:1001400027030008270300082703000827030008E7
:1001500027030008270300082703000827030008D7
:1001600027030008270300082703000800000000F9
:10017000270300082703000800000000000000001B
:1001800027030008270300082703000800F002F8EF
:1001900000F03CF80AA090E8000C82448344AAF1E5
:1001A0000107DA4501D100F031F8AFF2090EBAE8E3
:1001B0000F0013F0010F18BFFB1A43F0010318479B
:1001C00094560000B4560000103A24BF78C878C195
:1001D000FAD8520724BF30C830C144BF04680C604D
:1001E000704700000023002400250026103A28BF95
:1001F00078C1FBD8520728BF30C148BF0B60704799
:100200001FB505F07AFA1FBD10B510BD00F0E0F97A
:100210001146FFF7F5FF03F051F800F0FEF903B4C3
:10022000FFF7F2FF03BC00F005FA00002C4B196841
:10023000086800F05AB880F30988BFF36F8F4FF059
:10024000000080F311887047000000000848006833
:10025000006880F308884FF0000080F3148862B6CD
:1002600061B6BFF34F8FBFF36F8F00DF00BF00BFDA
:1002700008ED00E0DFF80C00016841F47001016056
:10028000704700BF88ED00E0EFF30980BFF36F8F88
:10029000134B1A681EF0100F08BF20ED108A20E9DA
:1002A000F04F106009B44FF0500080F31188BFF395
:1002B0004F8FBFF36F8F04F0B1F84FF0000080F361
:1002C000118809BC1968086800F014B81EF0100FF6
:1002D00008BF00F014B880F30988BFF36F8F704730
:1002E0006C000020EFF30580704730C8B0E8C04FC5
:1002F000FFF7A1BF30C8B0E8C04FFFF7E7BFB0ECD1
:10030000088AB0EC08CAFFF7E6BF0000094880473A
:1003100009480047FEE7FEE7FEE7FEE7FEE7FEE7E7
:10032000FEE7FEE7FEE7FEE704480549054A064BFF
:1003300070470000492800088D010008F81C0020C3
:10034000F8220020F81E0020F81E002053EA020CBC
:1003500000F069802DE9F04B4FF00006002B1FBF25
:10036000B3FA83F503FA05F424FA05F65E4012BFEA
:100370001643B2FA82F502FA05F4C5F120051EBF54
:1003800022FA05FC44EA0C04203556EA044C4FEAF4
:10039000144418BF641C4FF000084FF0000990424D
:1003A00071EB030C39D3002919BFB1FA81F701FAB7
:1003B00007F6B0FA80F700FA07F6C7F120071EBF6C
:1003C00020FA07FC46EA0C062037B6FBF4FCA7EB44
:1003D0000507103F07F01F0BCBF120060CFA0BFBB3
:1003E0002CFA06F644BFB3460026202FA4BF5E4673
:1003F0004FF0000B5BEA060C08BF4FF0010B19EB46
:100400000B09ABFB027C48EB0608C01B06FB02CCC9
:100410000BFB03CC71EB0C01C1E70B4602464146D6
:100420004846BDE8F08B13B54FF000004FF00001D7
:10043000AFF30080BDE81C407047032A40F23080D3
:1004400010F0030C00F0158011F8013BBCF1020F15
:10045000624498BF11F801CB00F8013B38BF11F896
:10046000013BA2F1040298BF00F801CB38BF00F8AD
:10047000013B11F0030300F05780083AC0F00880F8
:1004800051F8043B083A51F804CBA0E80810F5E70E
:10049000121D5CBF51F8043B40F8043BAFF30080F1
:1004A000D20724BF11F8013B11F801CB48BF11F866
:1004B000012B24BF00F8013B00F801CB48BF00F836
:1004C000012B704702F0FF0343EA032242EA024293
:1004D00000F05EB84FF0000200B513469446964611
:1004E000203922BFA0E80C50A0E80C50B1F1200147
:1004F000BFF4F7AF090728BFA0E80C5048BF0CC0F5
:100500005DF804EB890028BF40F8042B08BF704752
:1005100048BF20F8022B11F0804F18BF00F8012BC4
:10052000704770477047704710B5203AC0F00B8095
:10053000B1E81850203AA0E81850B1E81850A0E8E7
:100540001850BFF4F5AF5FEA027C24BFB1E8185041
:10055000A0E8185044BF18C918C0BDE810405FEAB1
:10056000827C24BF51F8043B40F8043B08BF70472D
:10057000D20728BF31F8023B48BF11F8012B28BF32
:1005800020F8023B48BF00F8012B70474FF00002F3
:100590000429C0F0128010F0030C3FF49DAFCCF1A1
:1005A000040CBCF1020F18BF00F8012BA8BF20F803
:1005B000022BA1EB0C01FFF78FBF5FEAC17C24BFC8
:1005C00000F8012B00F8012B48BF00F8012B704701
:1005D000754600F02BF8AE4605006946534620F0FC
:1005E0000700854618B020B5FFF79EFEBDE8204005
:1005F0004FF000064FF000074FF000084FF0000BDF
:1006000021F00701AC46ACE8C009ACE8C009ACE891
:10061000C009ACE8C0098D46704710B50446AFF379
:1006200000802046BDE81040FFF7F9BD0048704744
:10063000981C002001491820ABBEFEE726000200EE
:100640007047FEE7014800F041B80000E8020020D2
:10065000014800F03BB80000A0020020014800F073
:1006600035B8000030030020014800F02FB800002A
:100670007803002030B590F8444004F01C050124B4
:10068000AC40056C6C60046863608368102B036881
:1006900003D099600068C26030BD9A600068C16094
:1006A00030BD7047064A030A13715071080A9071F1
:1006B000D1719075D17518220149024801F084BDAD
:1006C000440000200C02002072B6FEE7F0B4016C7A
:1006D0000C6801680D6890F8442002F01C060422A2
:1006E00002FA06F3234211D06B070FD50B689B0665
:1006F00003D40B6823F004030B6090F8441001F05E
:100700001C018A40016C4A60016B1DE0022303FA60
:1007100006F727424FF0000C4FF0010218D0AF0748
:1007200016D50C68A40605D40C6824F00A040C60E5
:1007300080F8252090F8441001F01C018B40016CDA
:100740004B6080F824C0C16A00291AD0F0BC084769
:100750000823B340234214D02B0712D50B6823F093
:100760000E030B6090F84410036C01F01C0102FAB8
:1007700001F15960C26380F8252080F824C0416BE4
:10078000E2E7F0BC7047000070B568B12B4C03681D
:1007900014212B4AA34209D22A4C1C44B4FBF1F188
:1007A0008900C0E910210BE0012070BD234C644298
:1007B0001C44B4FBF1F1890041642049083901640B
:1007C000022180F825101C6847F6F0718C43D0E9AF
:1007D00002152943D0E90456354329438569294345
:1007E000C5692943056A2943214319608168B1F528
:1007F000804F19D0036C0F21934202D152F8A83FC9
:1008000002E00E4AA032136890F8444004F01C0441
:10081000A1408B43136090F84430416803F01C03FF
:1008200099401368194311600021C163012280F8C7
:10083000252080F82410084670BD000008040240FE
:1008400000000240F8FFFDBF70B5044690F8240098
:10085000002501280CD0012084F8240094F825609C
:100860000020012E06D084F824000225284670BD01
:10087000022070BD022684F82560E06320680668C7
:1008800026F0010606602046FFF7F4FE206B0028E4
:100890002068016802D041F00E0106E021F0040159
:1008A00001602068016841F00A0101602068016868
:1008B00041F001010160D9E770B5044600F01AF972
:1008C0000546601C02D004480078044400F012F988
:1008D000401BA042FAD370BD5C0000202DE9F04F10
:1008E000DFF8E091002301270326A9F1040B85B06E
:1008F0000F2509F1040AABF1040EDBE007FA03FC53
:1009000012EA0C027ED00C7904F00304012C01D011
:10091000022C20D1846800945C0006FA04F8049448
:10092000009C24EA08040094D1F80C80049C08FA86
:1009300004F8009C48EA0408C0F80880446824EAE7
:100940000C0491F804C0CCF3001C0CFA03FC4CEA34
:10095000040CC0F804C00C79E443A4070DD0D0F80F
:100960000CC04FEA430806FA08F42CEA040C8C6821
:1009700004FA08F444EA0C04C4600C7904F003049B
:10098000022C19D1DC0800EB84040294246A4FEA9B
:10099000437C4FEADC6CCDF810C005FA0CFC24EA6D
:1009A0000C04D1F81080DDF810C008FA0CF848EA01
:1009B0000408029CC4F8208004684FEA430806FA41
:1009C00008FC24EA0C0491F804C00CF0030C0CFAA7
:1009D00008FC4CEA040CC0F800C04C6814F4403F1A
:1009E00067D0394CD4F860C04CF0010CC4F860C03A
:1009F000246E23F0030C04F001040094334C64448F
:100A0000029400E055E0A4684FEA837C4FEA1C782A
:100A100005FA08FC24EA0C04B0F1904F06D0DFF888
:100A2000B0C0604505D14FF0010C0BE04FF0000C59
:100A300008E0DFF8A0C0604502D14FF0020C01E0F1
:100A40004FF0070C0CFA08FC4CEA040C029CC4F8AA
:100A500008C0D9F80040CC46D1F8048094435FEA3E
:100A6000C82800D51443CCF80040DAF80040D4463A
:100A7000D1F8048094435FEA882800D51443CCF869
:100A80000040DBF80040DC46D1F8048094435FEA84
:100A9000883800D51443CCF80040DEF80040F44616
:100AA000D1F8048094435FEAC83800D51443CCF8E9
:100AB00000405B1C0C682246DC407FF41FAF05B091
:100AC00000F00AB808040140001002400000014094
:100AD000000400480008004830BCBDE8C08F006931
:100AE000084000D0012070470AB1816170478162DF
:100AF0007047000001488068704700005C000020DB
:100B00000248816802781144816070475C000020CF
:100B100010B50024032000F09FF80F2000F008F823
:100B200008B1012401E000F04FF8204610BD00009C
:100B300030B505461F4887B0816D41F010018165D1
:100B4000806D06A900F01000009001A800F0BAFA2C
:100B50000498B0B100F0D6FA40001749174AB0FB2C
:100B6000F1F11748491E0260416040F2E73200216E
:100B7000C0E903218160816100F066FE040003D0BA
:100B800015E000F0BFFAE8E70D4800F0ADFE040004
:100B90000DD1362000F032F8102D07D20022294660
:100BA000362000F039F80748056000E0012407B05E
:100BB000204630BD0010024040420F0000100040AF
:100BC000C0030020600000200B4882B0016E41F09D
:100BD00001010166016E01F001010091816D41F09A
:100BE00080518165806D002200F0805000900F21BF
:100BF000901E02B000F010B800100240002809DB7F
:100C000000F01F02012191404009800000F1E02026
:100C1000C0F8001170470000F0B40E4B1B680C4682
:100C2000C3F30223C3F10705042D00D90425191DC0
:100C3000072901D2002300E0DB1E012606FA05F198
:100C4000491E214099409E40761E16403143F0BC1B
:100C500002F0D9BA0CED00E0064900F0070208687E
:100C60004FF6FF03184040EA0220034A1043086091
:100C7000704700000CED00E00000FA051649B0F5E1
:100C8000007F0868C0F3412009D0022805D0086819
:100C900020F4C06040F480600860002070470128A4
:100CA000FBD0086820F4C06040F4007008600B4876
:100CB0003222006850430A4AB0FBF2F0401C00E0C8
:100CC000401E4A69520501D50028F9D148694005FE
:100CD000E3D503207047000000700040680000204A
:100CE00040420F000248006800F4C06070470000F6
:100CF000007000402DE9F84F0446002700889C4D05
:100D00003E46000515D5E06B60B1B0F5000F04D08C
:100D1000B0F5400F2BD001270AE0E86840F480309E
:100D2000E86024E00021201D01F0E8FB07001ED050
:100D30003E462068800338D5A86D4FF00008C000FB
:100D400009D4A86D40F08050A865A86D4FF0010847
:100D500000F080500090DFF81CA2DAF8001041F497
:100D60008071CAF80010FFF7C5FE814610E0D5F883
:100D70008800E16B20F440000843C5F88800D8E7FC
:100D8000FFF7B8FEA0EB0900022801D9032704E011
:100D9000DAF80000C005F3D5EFB33E46B8F1000F16
:100DA00003D0A86D20F08050A8652078C00707D038
:100DB000D5F88800216A20F003000843C5F88800B0
:100DC0002078800707D5D5F88800616A20F00C00EC
:100DD0000843C5F888002078800607D5D5F8880034
:100DE000A16A20F440600843C5F888002088800587
:100DF00007D5D5F88800616B20F440200843C5F87A
:100E000088002088400509D5D5F88800A16B20F41A
:100E10004010084300E02EE0C5F888002078400626
:100E200007D5D5F88800E16A20F440500843C5F89A
:100E300088002088C00507D5D5F88800216B20F4EC
:100E400040300843C5F8880020884FF000678004D0
:100E50004FF080684ED5D5F88800216C20F04060B6
:100E60000843C5F88800206CB8423BD1E86840F4DC
:100E70008010E8603EE0D5F8900010F4407014D087
:100E8000216D814211D0D5F89000D5F8901020F452
:100E9000407041F48031C5F89010D5F8901021F4DD
:100EA0008031C5F89010C5F89000C00711D0FFF749
:100EB00021FE074641F2883907E000BFFFF71AFE1E
:100EC000C11B494501D9032668E7D5F89000800782
:100ED000F4D5D5F89000216D20F440700843C5F892
:100EE00090005BE7404505D10121201D01F006FB84
:100EF00000B106462068400317D5D5F88800616C1C
:100F000020F040600843C5F88800606CB84204D106
:100F1000E86840F48010E86007E0404505D1012111
:100F2000201D01F0EBFA00B106462088400411D5DF
:100F3000D5F88800A16C20F040500843C5F888001F
:100F4000A06CB0F1805F05D10221201D01F0D6FA1E
:100F500000B106462088000406D555F8880FE16CDC
:100F600020F0804008432860304600F005B80000BB
:100F7000001002400070004018BCBDE8E08F000087
:100F80002DE9F0470F4605006BD0494E306800F060
:100F90000700B84209D2306820F0070038433060BB
:100FA000306800F00700B8425BD12878414C8007D8
:100FB0000AD5A868A16801F0F001884204D9A168A7
:100FC00021F0F0010143A1602878C0072CD06868A7
:100FD000032811D0022812D0216898B149050029B0
:100FE0003FDAA16821F003010143A160FFF782FD10
:100FF000804641F2883910E021688901EFE72168D5
:101000008903ECE78907EAE7FFF774FDA0EB080125
:10101000494502D90320BDE8F087A068696800F05F
:101020000C00B0EB810FEFD1287880070AD5A868B3
:10103000A16801F0F001884204D2A16821F0F0011A
:101040000143A160306800F00700B8420BD9306856
:1010500020F0070038433060306800F00700B842E5
:1010600001D00120D7E72878400705D5A068E968B6
:1010700020F4E0600843A0602878000706D5A06847
:10108000296920F4605040EAC100A06000F05EF8D9
:10109000A168094AC1F30311515C01F01F01C84066
:1010A0000649086006480068BDE8F047FFF740BD04
:1010B0000020024000100240AC57000868000020E9
:1010C000600000200F2202600C4A936803F00303C3
:1010D0004360936803F0F0038360936803F4E06374
:1010E000C36092684FF4E06303EAD20202610448ED
:1010F000006800F007000860704700000010024020
:10110000002002400548064900688968054AC1F385
:101110000221515C01F01F01C840704768000020A7
:1011200000100240EC57000805480649006889682D
:10113000054AC1F3C221515C01F01F01C84070474C
:101140006800002000100240EC57000870B52549E7
:10115000002318468A68CC6812F00C0204F00306DB
:10116000214C4FEA640509D00C2A05D0042A32D05C
:10117000082A00D1284670BD012E10D10B681B072C
:1011800004D4D1F89430C3F3032302E00B68C3F313
:101190000313164E56F82330DAB10C2AEBD1C86887
:1011A00000F00300022818D0032818D01846CA6897
:1011B000CB68C2F30212C3F306234343521CB3FBB2
:1011C000F2F2C868C0F34160401C4000B2FBF0F08E
:1011D00070BD184670BD204670BD2046E7E7284622
:1011E000E5E70000001002400024F400BC570008AE
:1011F0002DE9F84304006FD0FA4DA86800F00C0602
:10120000E86800F003072078C00664D576B10C2E9C
:1012100001D1012F0AD0A069002828687AD040F0B7
:1012200001002860FFF766FC80465DE028688007C3
:1012300002D5A0690028DED0216A2868000703D5FE
:10124000286800F0F00004E0D5F89400F02202EAEB
:101250001010814216D9084601F0E6F900283BD16A
:10126000286840F0080028602868216A20F0F00013
:10127000084328606868E16920F47F4040EA012063
:10128000686016E0286840F0080028602868216A35
:1012900020F0F000084328606868E16920F47F408E
:1012A00040EA0120686026B9206A01F0BDF90028F3
:1012B000D5D1FFF74BFFA968CB4AC1F30311515CAD
:1012C00001F01F01C840C9490860C9480068FFF71C
:1012D0002FFC00287ED12EE0CAE000BFFFF70AFCF9
:1012E000A0EB0800022876D828688007F6D5286881
:1012F00040F0080028602868216A20F0F0000843C8
:1013000028606868E16920F47F4040EA0120686055
:1013100011E0FFE720F001002860FFF7EBFB8046BB
:1013200006E000BFFFF7E6FBA0EB08000228DAD8D2
:1013300028688007F6D42078C00740D0082E18D03F
:101340000C2E01D1032F14D06068B0F5803F17D068
:10135000B0F5A02F286817D020F4803028602868C6
:1013600020F4802028606068E0B1FFF7C3FB80466E
:1013700014E02868800322D56068002878D01EE039
:10138000286840F48030EDE740F480202860F7E7DB
:10139000FFF7B0FBA0EB08006428A4D828688003FE
:1013A000F6D50CE0FFF7A6FB804605E0FFF7A2FBB1
:1013B000A0EB0800642896D828688003F6D420782B
:1013C00080073BD5042E11D00C2E01D1022F0DD059
:1013D000E06801E0AAE1FFE0002828681ED040F4A0
:1013E00080702860FFF786FB07460CE02868400500
:1013F0000CD5E0680028C1D008E000BFFFF77AFBF9
:10140000C01B022893D828684005F7D56868217C5E
:1014100020F0F85040EA016068600FE020F480702E
:101420002860FFF767FB074605E000BFFFF762FB98
:10143000C01B0228B1D828684005F7D420780007DF
:1014400029D560690028D5F8940012D040F0010039
:10145000C5F89400FFF74EFB074604E0FFF74AFB90
:10146000C01B022899D8D5F894008007F6D512E061
:101470002BE120F00100C5F89400FFF73BFB074685
:1014800005E000BFFFF736FBC01B022885D8D5F862
:1014900094008007F6D42078400766D5A86D002711
:1014A000C00008D4A86D40F08050A865A86D012741
:1014B00000F0805000904F480168C90512D40168BF
:1014C000814641F480710160FFF714FB804605E01E
:1014D000FFF710FBA0EB080002287DD8D9F8000028
:1014E000C005F5D5A068012816D00528D5F89000CC
:1014F00017D020F00100C5F89000D5F8900020F03A
:10150000040000BFC5F89000A06841F28839C0B15E
:10151000FFF7F0FA80460FE0D5F8900040F00100A8
:10152000F0E740F00400C5F89000F5E7FFF7E2FAB5
:10153000A0EB080149454FD8D5F890008007F5D5B4
:101540000EE0FFF7D7FA804606E000BFFFF7D2FAB9
:10155000A0EB080149453FD8D5F890008007F5D4A5
:101560001FB1A86D20F08050A8652078800628D58E
:10157000606A0028D5F8980012D040F00100C5F844
:101580009800FFF7B7FA074605E000BFFFF7B2FA89
:10159000C01B022820D8D5F898008007F6D510E0A7
:1015A00020F00100C5F89800FFF7A4FA074604E010
:1015B000FFF7A0FAC01B02280ED8D5F898008007C4
:1015C000F6D4A06AF0B3022816D00C2E7DD028687D
:1015D00020F08070286000E0A7E0FFF78BFA044657
:1015E000A6E0000000100240AC5700086800002090
:1015F0006000002000700040E868E26A00F003012B
:10160000914228D1216B00F07002090110399142FA
:1016100021D1626B00F4FE41B1EB022F1BD194F893
:10162000382000F07841B1EBC26F14D1A18F00F4E3
:10163000C00249084905A1F5001191420BD194F867
:10164000401000E06AE04908490600F0C060A1F1DE
:10165000007181424BD00C2E73D02868400170D4A9
:10166000286820F080702860FFF744FA064604E0FE
:10167000FFF740FA801B022857D828688001F7D46A
:10168000F4E90B016FF00F0202EB01110843218A0C
:101690005204490802EB4151A26841EA0221084381
:1016A000217D4FF07E42490802EB41610843217BD6
:1016B00040EAC160E968244A11400843E8602868AC
:1016C00040F080702860E86800E03AE040F0807008
:1016D000E860FFF70FFA044605E000BFFFF70AFADB
:1016E000001B022821D828688001F7D527E0286848
:1016F000800124D4286840F080702860E86840F0B9
:101700008070E860FFF7F6F9044604E0FFF7F2F9AD
:10171000001B022809D828688001F7D50FE000BF18
:10172000FFF7E8F9001B022802D90320BDE8F8837F
:1017300028688001F4D4E86804490840E860002083
:10174000F4E70120F2E700008C809D01FCFFEEFE33
:10175000704770477047000030B590F83C20012A70
:1017600037D0012280F83C20CA688C6822F440728D
:1017700022434C6822F4806222430C6822F4006207
:1017800022430C6922F4805222434C6922F4005215
:1017900022438C6A22F4804222430C8B22F4702272
:1017A00042EA04420C4D04680023AC420CD18D8CFB
:1017B00022F4700242EA0552CD6922F080722A4377
:1017C000096A22F000720A43626480F83C3000200B
:1017D00030BD022030BD0000002C0140F0B590F873
:1017E0003C20012A29D0012480F83C40022280F8C4
:1017F0003D2003685A689D68114EB34203D122F41C
:1018000070074A683A4322F070070A683A435A6000
:101810000268B24205D0B2F1804F02D0094B9A4221
:1018200004D1896825F080031943916080F83D4018
:10183000002180F83C100846F0BD0220F0BD0000F9
:10184000002C01400040014010B5040003D094F882
:101850003D0010B107E0012010BD002084F83C00DD
:10186000204600F023F8022084F83D00211D206866
:1018700000F0F8FF012084F8480084F83E0084F866
:101880003F0084F8400084F8410084F8420084F866
:10189000430084F8440084F8450084F8460084F846
:1018A000470084F83D00002010BD000008B50C4A38
:1018B00001680C48914207D1016E41F40061016654
:1018C000006E00F4006009E0B1F1804F07D1816D36
:1018D00041F001018165806D00F00100009008BDBC
:1018E000002C01400010024090F83D10012901D069
:1018F00001207047022180F83D100168CA6842F05B
:101900000102CA6000680B49884205D0B0F1804FDF
:1019100002D00949884207D18168084A1140062946
:1019200006D0B1F5803F03D0016841F001010160AC
:1019300000207047002C01400040014007000100DA
:1019400070B5044690F83C000025012817D0012608
:1019500084F83C60022084F83D00226890682F4B98
:10196000184020F47F4090600868502838D00DDC83
:1019700020284FD005DC90B3102811D14AE0022076
:1019800070BD302846D040280AD13BE060282FD0D7
:1019900070280DD0B0F5805F03D0B0F5005F12D095
:1019A000012584F83D60002084F83C00284670BD85
:1019B000CB68D1E90121206800F09DFF2068816893
:1019C00041F0770109E0CB68D1E90121206800F0FE
:1019D00092FF2068816841F480418160E1E719E06D
:1019E000CA684968206801F0D7F85021206806E0ED
:1019F000CA684968206801F0E0F86021206800F0BA
:101A000084FFCEE7CA684968206801F0C5F8402124
:101A10002068F4E7226801461046F0E788FFFEFFE1
:101A200070472DE9F04104460068C66805694FF02B
:101A30000007A90713D5B10711D5F91E01610120CF
:101A40002077206880698007204602D0FFF7E8FFF2
:101A500004E000F0C1F8204600F083F9277768071A
:101A600016D5700714D521686FF0040008610220B4
:101A700020772068806910F4407F204602D0FFF76D
:101A8000CFFF04E000F0A8F8204600F06AF92777BD
:101A9000280715D5300713D521686FF008000861B5
:101AA000042020772068C0698007204602D0FFF715
:101AB000B7FF04E000F090F8204600F052F92777D5
:101AC000E80616D5F00614D521686FF010000861FD
:101AD000082020772068C06910F4407F204602D09B
:101AE000FFF79EFF04E000F077F8204600F039F998
:101AF0002777E80708D0F00706D021686FF00100CB
:101B00000861204600F0E2F9280601D4A80408D5AF
:101B1000300606D521686FF4025008612046FFF7B1
:101B200018FEE80508D5300606D521686FF48070E8
:101B300008612046FFF70CFE680608D5700606D53A
:101B400021686FF040000861204600F0C9F9A8063E
:101B50000AD5B00608D521686FF02000086120463C
:101B6000BDE8F041FFF7F6BDBDE8F08170B586B085
:101B7000044614216846FEF7ADFC154E2568002288
:101B80001449022401234FF09040B54209D1CD6C95
:101B900045F00105CD64C96C01F001010591190200
:101BA0000BE0B5F1804F10D1CD6C45F00105CD644F
:101BB000C96C01F00101059120210091CDE901429C
:101BC0006946CDE90323FEF789FE06B070BD00002B
:101BD000002C014000100240704770B5044690F898
:101BE0003C0000260D4601280BD0012084F83C0063
:101BF0000C2A4AD007DC82B1042A20D0082A06D158
:101C000031E0022070BD102A53D0142A63D001267F
:101C1000002084F83C00304670BD206800F07EFE55
:101C20002068816941F0080181612068816921F0A3
:101C300004018161206881692A69114311E02068EB
:101C400000F0A8FE2068816941F40061816120688C
:101C5000816921F480618161206881692A6941EA92
:101C600002218161D4E7206800F0D0FE2068C169BC
:101C700041F00801C1612068C16921F00401C1611E
:101C80002068C1692A69114311E0206800F0F8FE5C
:101C90002068C16941F40061C1612068C16921F413
:101CA0008061C1612068C1692A6941EA0221C1617C
:101CB000AEE7206800F014FF2068416D41F0080194
:101CC00041652068416D21F0040141652068416D46
:101CD0002A69114311E0206800F030FF2068416D4F
:101CE00041F4006141652068416D21F480614165E6
:101CF0002068416D2A6941EA0221416588E710B5F3
:101D0000040003D094F83D0010B107E0012010BD9D
:101D1000002084F83C00204600F022F8022084F8DD
:101D20003D00211D206800F09DFD012084F8480041
:101D300084F83E0084F83F0084F8400084F84100B5
:101D400084F8420084F8430084F8440084F8450095
:101D500084F8460084F8470084F83D00002010BD58
:101D60007047704710B50446022269B1042912D0A9
:101D7000082917D00C291CD0102921D094F8430031
:101D8000012824D0012010BD94F83E000128F9D18B
:101D900084F83E201DE094F83F000128F2D184F839
:101DA0003F2016E094F840000128EBD184F8402051
:101DB0000FE094F841000128E4D184F8412008E0C4
:101DC00094F842000128DDD184F8422001E084F833
:101DD00043200122206800F081FD12492068124A48
:101DE000884204D0904202D0104B984203D1436CF9
:101DF00043F4004343642068884204D0B0F1804F2C
:101E000001D0904207D18168094A1140062906D0C5
:101E1000B1F5803F03D0016841F00101016000206D
:101E200010BD0000002C0140004001400044014072
:101E30000700010030B504460D460068002200F09E
:101E40004DFD1F4B41F2111220689110984205D0B0
:101E50001C4B984202D01C4B984209D1036A134292
:101E600006D1036A0B4203D1436C23F4004343645D
:101E70002068036A134206D1026A0A4203D101684C
:101E800021F00101016001205DB1042D0CD0082D6D
:101E90000DD00C2D0ED0102D0FD084F84300002053
:101EA00030BD84F83E00FAE784F83F00F7E784F895
:101EB0004000F4E784F84100F1E784F84200EEE7DF
:101EC000002C0140004001400044014000680349EB
:101ED000884201D1FEF714BE704700000010004098
:101EE00070477047704710B5040002D0E06F10B122
:101EF00007E0012010BD002084F87800204600F0A3
:101F000025F82420E0672068016821F001010160C4
:101F1000606A10B1204600F062FE204600F0EAFF41
:101F20000128E7D02068416821F490414160206891
:101F3000816821F02A0181602068016841F0010177
:101F400001602046BDE8104000F0ADBE2DE9F04F25
:101F50009BB00446142115A8FEF7BCFA542168462C
:101F6000FEF7B8FA56492068564E002502274FF072
:101F700003084FF0070A4FF0800B88424ED1012032
:101F8000009008956846FEF7B5FE08B1FEF79CFB89
:101F9000306E40F480403066306E00F480401A901D
:101FA000F06C40F00100F064F06C17AA00F0010042
:101FB0001A904FF4C060CDE9150782E8200515A9F5
:101FC0004FF09040FEF78AFC404E3F484FF020080B
:101FD0003060C6E90175C6E9035B7561C6E906585C
:101FE000D94630463562FEF7CFFB08B1FEF76CFBF1
:101FF0006667B4623448364E1438E6E802071020AB
:10200000A6E82102324846F81459C6E90658356256
:102010004FE02667B4621BB000F062B82D498842D9
:10202000F9D1684600970995FEF764FE08B1FEF7FE
:102030004BFBB06D40F40030B065B06D00F4003083
:102040001A90F06C40F00100F064F06C17AA00F0F8
:1020500001001A900C20CDE9150782E82005B94649
:1020600015A94FF09040FEF739FC17481A4E14306E
:102070004FF020083060C6E90175C6E9035B756161
:10208000C6E906585F4630463562FEF77DFB08B16B
:10209000FEF71AFB6667B4620B48104E2830E6E87C
:1020A00002091020A1C60D4846F81459C6E9065881
:1020B0003562FEF769FB0028ABD0FEF705FBA8E709
:1020C000003801400010024058000240A0020020E9
:1020D000E802002000440040300300207803002084
:1020E00030BCBDE8C08F000030B4D0F88030202B69
:1020F00002D0022030BC7047A9B1A2B10023036610
:102100000A4C0368A3420BD05B681B0208D5046825
:1021100054E8003F43F0806344E80035002DF6D1D9
:1021200030BC00F0D5BF0120E4E700000080004093
:1021300010B52148214C2049808840BA2081097A75
:10214000B0F5405F0CD0B0F5805F21D0B0F5005FF6
:1021500026D161B301292CD0022921D1962029E072
:102160000022012061B101291AD1A2616070002111
:102170001348FFF75FFE606BBDE8104001F024BA22
:10218000A06162703221BDE810400B2001F032B92D
:1021900039B1012908D0022902D146F2A810E06025
:1021A00010BD44F27400FAE745F2F050F7E75A2008
:1021B00000E07820606110BD940200200000002043
:1021C000EC0000207047000070B50446C06F202866
:1021D00001D0022070BD29B322B3E164A4F85020DD
:1021E000A4F852200021C4F884102120E067206F59
:1021F000D0B1154BC362236F14481863236F144882
:102200005863206F134681632068256F00F1280210
:102210002846E16CFEF718FB30B11020C4F88400AA
:102220002020E067012070BD2168402008622068FE
:10223000083050E8001F41F0800140E80012002AF9
:10224000F5D1002070BD0000432E0008852E000847
:102250004F2D000870477047FEE700000A4C00252C
:102260004FF4FA76207830B102F00AF9BDEEC00AD8
:1022700010EE101A00E029462164E088FEF712FAF9
:10228000304601F0CFFFEDE700000020F0B587B049
:1022900014216846FEF71EF91C48C16C41F001018B
:1022A000C164C16C01F001010591C16C41F00201F2
:1022B000C164C06C4FF0904600F00200059000220F
:1022C00001213046FEF710FC114F00220A2138464A
:1022D000FEF70AFC012500240095CDE9015469466A
:1022E00030460394FEF7FAFACDE9005469463846C1
:1022F0000294FEF7F3FA0A200090CDE901546946F2
:1023000038460394FEF7EAFA07B0F0BD0010024029
:102310000004004810B59AB000241794189415943E
:102320001694129413941C210BA81494FEF7D2F85F
:102330002C216846FEF7CEF82B482A4901604F2130
:10234000C0E9011440F2E731C0E90314446184613B
:10235000FFF77AFA08B172B6FEE74FF48050159095
:1023600015A92148FFF7ECFA08B172B6FEE71E483E
:10237000FFF7C5FC08B172B6FEE71294139412A9D8
:1023800019481494FFF72AFA08B172B6FEE76020E4
:10239000CDE90B040D940E940F94109400220BA918
:1023A00011481194FFF719FC08B172B6FEE70094CA
:1023B0004FF40050CDE904400194029403940003CB
:1023C0000694CDE907400994694607480A94FFF747
:1023D000C3F908B172B6FEE70348FFF7C7FB1AB0AE
:1023E00010BD0000002C0140EC00002010B58EB0A4
:1023F00000240794089409940A940B940C941C21CB
:1024000068460D94FEF766F81E484FF08041016063
:1024100040F2DC51C0E9011440F2E731C0E9031495
:102420008461FFF711FA08B172B6FEE74FF48050ED
:10243000079007A91348FFF783FA08B172B6FEE7C1
:102440001048FFF75CFC08B172B6FEE70B940BA9CD
:102450000C480D94FFF7C2F908B172B6FEE7602090
:10246000CDE9000402940022694606480494FFF76F
:10247000B4FB08B172B6FEE70248FFF777FB0EB077
:1024800010BD0000380100200C4810B50A49016059
:102490004FF4E1314160002181600C22C160C0E94C
:1024A00004128161C16101624162FFF71CFD0028D5
:1024B00001D072B6FEE710BD003801408401002053
:1024C0000C4810B50A4901604FF4E1314160002128
:1024D00081600C22C160C0E904128161C1610162A6
:1024E0004162FFF700FD002801D072B6FEE710BD83
:1024F000004400400C020020FEE7FEE72DE9F04119
:10250000444C05468846E0680026810728680DD0BF
:10251000E16801F00301814216D1A8B1E068696861
:10252000C0F30210401C88420ED120E0012804D0E4
:10253000022805D0032807D108E02168890701E0B7
:1025400021684905002907DB01265FE0216889032E
:1025500002D421684903F5E7E1686A686FF00F0368
:1025600021F0730103EB021211430143E160206883
:1025700020F080602060FEF7BDFA074605E000BF4E
:10258000FEF7B8FAC01B022837D820680001F7D43C
:10259000B8F1000F18D0B8F1010F1DD0287D4FF011
:1025A0007E41400801EB4060A96840EA01202169B2
:1025B000194A114008432061206840F08060206083
:1025C000FEF798FA07461AE0A868297B000240EA5D
:1025D000C1602169114AECE7288A1149400801EBE2
:1025E0004050A96840EA012021690E4AE1E700BF96
:1025F000FEF780FAC01B022801D9032606E02068F6
:102600000001F5D52069A969084320613046BDE87D
:10261000F081000000100240FF80FFF9FF80FF07FB
:102620000000E0FFFF809FFFF8B51C4D0646002428
:10263000A86DC00002D5FEF755FB0DE0A86D40F077
:102640008050A865A86D00F080500090FEF74AFB0E
:10265000A96D21F08051A965B0F5007F04D0802ECE
:1026600007D94FF003040AE0802E08D9A02E01D824
:1026700004E001D1022402E0702E00D101240848B8
:10268000016821F0070121430160006800F00700A4
:10269000A04201D00120F8BD0020F8BD001002408A
:1026A000002002400025244C4FF47A770126A069CF
:1026B00038B36570A670E6704FF0FF31A06B00F084
:1026C00009FF58BB32210A2000F094FEA069C0B176
:1026D0006078B0B9384601F0A5FDA08A322180B2F9
:1026E00000F088FEA06960B1607850B9384601F00A
:1026F00099FD32210A2000F07DFEA06908B16078C2
:1027000080B10E4800684563A570E570606B00F00D
:102710005BFF667032210A2000F06CFE0A2001F097
:1027200081FDC4E7A570E570A0690028F6D025708A
:10273000606B00F049FFF1E7000000203801002045
:102740001A4D288A80B200F06FFDA86940B34FF09F
:10275000FF312C46686B00F0BDFEE8B91449322009
:10276000086000211348FFF7FDFA002605E0A06984
:1027700030B10A2001F056FD0A36E0688642F6DBE9
:1027800000210C48FFF756FBA06928B101202070FA
:10279000D4F8380000F018FF0A2001F043FDD0E71C
:1027A00000210448FFF746FB686BF3E700000020B8
:1027B000342C0140EC00002010B54FF0E0200069FF
:1027C00002F0B4FB012803D0BDE8104001F028BF9F
:1027D00010BD10B596B044216846FDF77BFE14216C
:1027E00011A8FDF777FE4FF40070FEF747FA08B125
:1027F00072B6FEE7102000900120002460210690B0
:10280000CDE907410221CDE90A100C9028200D9056
:102810000720CDE90E0168461091FEF7E9FC08B1EA
:1028200072B6FEE70F2011900320CDE91204149434
:10283000042111A81594FEF7A3FB002801D072B65D
:10284000FEE716B010BD00000248016841F47001B7
:102850000160704788ED00E00148FFF7E2B8000032
:10286000C003002070B50268194B4FF080469842B3
:1028700001D0B04203D122F070044A682243154CC3
:10288000154D984205D0B04203D0A04201D0A842D5
:1028900003D122F44076CA6832434E6922F08002A6
:1028A000324302608A68C2620A688262984203D038
:1028B000A04201D0A84201D109690163012141610F
:1028C0000169C90703D0016921F00101016170BDEF
:1028D000002C0140004001400044014010B501F0CF
:1028E0001F030121046A99408C430462016A9A40E3
:1028F0001143016210BD10B5846842EA032224F43A
:102900007F440A432243826010BD826822F0700235
:102910000A4342F00701816070470000F0B5056A84
:10292000026A22F00102026243688269154C25F0B6
:10293000020522400C6822F0030214438A68134EF9
:102940002A43114D124FA84203D0B04201D0B842E1
:1029500006D122F0080CCA6842EA0C0222F00402F6
:10296000A84203D0B04201D0B84205D14D6923F44A
:1029700040731D438B692B43436084614968416305
:102980000262F0BD8FFFFEFF002C014000400140BD
:102990000044014030B5046A026A22F0100202626B
:1029A00042688369154D2B400D6823F4407343EA58
:1029B000052524F020038C6843EA0413104CA04240
:1029C00007D1CC6823F0800343EA041323F04003CB
:1029D00005E00C4CA04202D00B4CA04207D14C6940
:1029E00022F4406242EA84028C6942EA8402426034
:1029F000856149688163036230BD0000FF8FFFFE7F
:102A0000002C0140004001400044014030B5046A00
:102A1000026A22F4807202624268C369144D2B403C
:102A20000D6823F003031D4324F400738C6843EA0C
:102A30000423104CA04207D1CC6823F4006343EA7E
:102A4000042323F4806305E00B4CA04202D00B4C1E
:102A5000A04207D14C6922F4405242EA04128C6928
:102A600042EA04124260C5614968C163036230BD35
:102A70008FFFFEFF002C0140004001400044014058
:102A800030B5046A026A22F4805202624268C36965
:102A90000F4D24F400542B400D6823F4407343EA97
:102AA00005238D6844EA05340A4DA84205D00A4D35
:102AB000A84202D0094DA84204D14D6922F48042B7
:102AC00042EA85124260C36149680164046230BD14
:102AD000FF8FFFFE002C01400040014000440140F8
:102AE00030B5046A026A22F4803202624268436DA1
:102AF0000E4D2B400D681D4324F400330C8943EA2E
:102B000004430B4CA04205D00A4CA04202D00A4C10
:102B1000A04204D14C6922F4803242EA042242608D
:102B2000456549688165036230BD00008FFFFEFF87
:102B3000002C0140004001400044014030B5046ACF
:102B4000026A22F4801202624268436D0E4D24F440
:102B500000142B400D6843EA05230D8944EA05540F
:102B60000A4DA84205D00A4DA84202D0094DA842FC
:102B700004D14D6922F4802242EA852242604365F5
:102B80004968C165046230BDFF8FFFFE002C014023
:102B9000004001400044014010B5036A046A24F07B
:102BA00001040462846924F0F00444EA021423F06E
:102BB0000A020A438461026210BD10B5036A046A06
:102BC00024F010040462846923F0A00324F4704408
:102BD00044EA023243EA01118261016210BD90F8B9
:102BE0002410090706D501684A68436B22F40042A5
:102BF0001A434A6090F82410C90706D001684A6851
:102C0000836A22F400321A434A6090F8241089073C
:102C100006D501684A68C36A22F480321A434A60C2
:102C200090F82410490706D501684A68036B22F41E
:102C300080221A434A6090F82410C90606D501681C
:102C40008A68836B22F480521A438A6090F82410B9
:102C5000890606D501688A68C36B22F400521A43BC
:102C60008A6090F82410490611D501684A68036CFF
:102C700022F480121A434A60016CB1F5801F06D11C
:102C800001684A68436C22F4C0021A434A6090F813
:102C90002410090606D501684A68806C22F40022D7
:102CA00002434A6070472DE9F84300260446C0F805
:102CB0008460FDF71FFF8046206800684FF0200504
:102CC00000076FF07E4712D54346002229042046B4
:102CD000009700F04DFA50B1216851E8000F20F044
:102CE000800041E80002002AF6D1E56721E0206873
:102CF0000068400722D5434600224FF48001204659
:102D0000009700F035FAC8B1216851E8000F20F4AF
:102D1000907041E80002002AF6D12068083050E89F
:102D2000001F21F0010140E80012002AF5D1C4F88B
:102D3000805084F878600320BDE8F883E567C4F824
:102D4000805044F8606F666026760020F4E770B526
:102D5000846AE06FD4F88050216889684FF00006DB
:102D6000090606D5212804D1A4F85260204600F0B7
:102D7000B4F820688068400606D5222D04D1A4F856
:102D80005A60204600F083F8D4F8840040F0100028
:102D9000C4F884002046FFF7A5F870BD10B50146C1
:102DA000806A096809684FF0000289062DD4A0F8EE
:102DB0005A20036853E8001F21F4807143E800148F
:102DC000002CF6D10168083151E8003F23F00103DF
:102DD00041E80034002CF5D10168083151E8003F8A
:102DE00023F0400341E80034002CF5D12021C0F845
:102DF0008010016E012908D1016851E8003F23F0DD
:102E0000100341E80034002CF6D14266016E01291E
:102E100002D0FFF78DF910BDB0F85810FFF761F838
:102E200010BD10B5806A01214166016E012902D0F2
:102E3000FFF7C8F910BDB0F858104908FFF751F86E
:102E400010BD10B50146806A09680968890616D464
:102E50000021A0F852100168083151E8002F22F03B
:102E6000800241E80023002BF5D1026852E8001FE0
:102E700041F0400142E80013002BF6D110BDFFF7EE
:102E8000E9F910BD10B5806AFFF7E5F910BD0168DA
:102E900051E8002F22F4907241E80023002BF6D174
:102EA0000168083151E8002F22F0010241E80023B7
:102EB000002BF5D1016E012908D1026852E8001FEC
:102EC00021F0100142E80013002BF6D12021C0F8B8
:102ED00080100021016681667047026852E8001F79
:102EE00021F0C00142E80013002BF6D12021C16778
:102EF000704700002DE9F0410446016880682269AE
:102F0000E66910436269002532431043694B0A6841
:102F1000694E324002430A6020684168E26821F449
:102F20004051114341602168A069994201D0226A51
:102F300010438A6822F4306202438A605F4927683E
:102F40005F488F420DD1D0F8880010F0030006D002
:102F5000012838D0022834D0032821D135E00121BE
:102F60001FE058498F420BD1D0F8880010F00C00B8
:102F700025D0042827D0082823D00C2810D124E0FD
:102F80009F420DD1D0F8880010F4406017D0B0F502
:102F9000806F18D0B0F5006F13D0B0F5406F14D02B
:102FA0001021494A00264FF400409F422FD171B1B1
:102FB00002290FD004290FD0082973D10FE0002176
:102FC000EFE70221EDE70421EBE70821E9E7FEF74F
:102FD00099F803E0104602E0FEF7B8F8F0B3626833
:102FE00002EB420181425DD8B0EB023F5AD8010E9C
:102FF00003025008181871410023FDF7A7F9334A5E
:10300000A0F5407191424DD82168C8604BE0E3695A
:103010004FF6EF77834228D1092943D2DFE801F048
:1030200005080B420D4242421000FEF76BF806E025
:10303000FEF77AF803E0104602E0FEF787F868B181
:103040004100606801EB5001B1FBF0F0A0F110010C
:10305000B94227D84FF6F071014000E023E0C0F3F9
:10306000420001432068C1601DE009291AD2DFE84F
:1030700001F005080B190D1919191000FEF742F897
:1030800006E0FEF751F803E0104602E0FEF75EF8B6
:1030900048B1616800EB5100B0FBF1F0A0F1100104
:1030A000B94205D90125A6662846E666BDE8F08145
:1030B00080B2A9E700800040F369FFEF00380140CB
:1030C00000100240004400400024F400FFFC0F0008
:1030D00070B54165A0F8582000210446C0F884105E
:1030E0002220C4F88000606FD0B11E4BC362636FB2
:1030F0001D481863636F1D485863606F13468163F2
:10310000656D21682A462431606FFDF79DFB38B15B
:103110001020C4F884002020C4F88000012070BD75
:10312000206940B1216851E8000F40F4807041E807
:103130000002002AF6D12068083050E8001F41F054
:10314000010140E80012002AF5D12068083050E85B
:10315000001F41F0400140E80012002AF5D1002094
:1031600070BD00009D2D0008232E00084F2D000883
:103170002DE9F047994617460D4604464FF00008E2
:10318000089E33E0701C31D0FDF7B4FCA0EB0900C1
:10319000B04218D8BEB120680168490726D5802DF5
:1031A00024D0402D22D0C169C94309070DD4082578
:1031B00005622046FFF76BFEC4F8845084F87880DF
:1031C0000120BDE8F0870320FBE7C069C04300058C
:1031D0000CD421684FF4006008622046FFF757FEC8
:1031E0002020C4F8840084F87880ECE72068C06967
:1031F00035EA000004D00020B842C3D00020E0E748
:103200000120F9E7FEE70907090E002804DB00F1B9
:10321000E02080F80014704700F00F0000F1E0207B
:1032200080F8141D7047000002490A68D062C86027
:1032300070470000EC00002070B50024FDF75AFC38
:1032400005461D4E07E000BFFDF754FC401BC82893
:1032500001D9002070BD01213046FDF740FC012856
:10326000F2D00025012202213046FDF73DFC64002A
:10327000002202213046FDF737FC01213046FDF7E0
:103280002EFC012800D1641C6D1C6DB2182DE9DBE9
:1032900084F40004012202213046FDF725FC0120C0
:1032A00000F0DCF8002202213046FDF71DFC012071
:1032B00000F0D4F8204670BD0004004808B5FDF7C2
:1032C00027FCFFF786FAFEF7E1FF4148816C41F0E9
:1032D00001018164806C002200F001000090052152
:1032E0000E20FDF799FC0E20FDF788FC0022052139
:1032F0000F20FDF791FC0F20FDF780FC0022052137
:103300001020FDF789FC1020FDF778FC0022052134
:103310001120FDF781FC1120FDF770FCFEF7FAFF8C
:10332000FFF764F8FFF7CCF8FFF7AEF84FF4FA7048
:10333000FDF7C2FA27490922A1F18800FEF7D4FE61
:1033400000212548FEF70EFD244C012202212046D3
:10335000FDF7CAFB0A2000F081F800220221204676
:10336000FDF7C2FB0A2000F079F800F085F81C4A4E
:103370000021012000F0DCF81A4C194A002160639A
:103380001032012000F0D4F8154AA0632032002149
:10339000012000F0CDF8124AE0636C3A0021124897
:1033A00000F03EF90E4AA062483A00210F4800F0B2
:1033B00037F90B4AE062243A00210D4800F030F959
:1033C000206300F06BF83220FDF776FAFBE700008F
:1033D0000010024094020020380100200004004840
:1033E0007C5700080000002041270008A52600089F
:1033F0005D2200082DE9F04705468946642005FB5B
:1034000000F1B420B1FBF0F1124E19318FB2B18846
:1034100064225143B1FBF0F0193084B2DFF83880F8
:1034200012E0707820B1D8F80000002141630DE06F
:10343000BC4201D2641C00E0641ED8F80000A4B2B3
:103440004463484600F00AF8BC42EAD1B580BDE8C2
:10345000F0870000000000203801002010B5EFF3D5
:10346000058111B16FF0050403E0002408B100F0FC
:10347000D9FE204610BD0000EFF3058010B16FF0BB
:10348000050070470448016811B14FF0FF307047E4
:103490000121016000207047BC00002010B5EFF34F
:1034A000058010B16FF0050010BD084801680129C2
:1034B00002D04FF0FF3010BD054A002182F8141DE4
:1034C0000221016000F05EFF002010BDBC00002062
:1034D0000BE000E0F8B50D460024211F4E1C00282B
:1034E00004D000BFEFF30582A2B10DB10C461BE082
:1034F00000216A46009101F079FB012813D1009860
:1035000090B10A494FF080500860BFF34F8FBFF36E
:103510006F8F09E0294601F0B7FB012804D015B1EF
:103520006FF0010400E034462046F8BD04ED00E0F1
:10353000F8B5144603460E464FF00005EFF305803C
:1035400098BB93B39E423DD84CB1A0680028E06878
:1035500003D0502836D3012002E008B132E0002029
:10356000012B05D010B31846A26801F08CF820E0BA
:1035700040B103200090002211460120A36801F011
:10358000C3F804E003220021012001F09CF80500AB
:1035900018D086B100231A46194601F02DF90128EA
:1035A00009D0284600F0F0FD00250BE0184601F098
:1035B0004DF8050006D00CB1216800E00021284636
:1035C00000F0CEFD2846F8BD38B50024E51E0028E1
:1035D0000BD000BFEFF30581A9B10021009169462E
:1035E00001F019FA012815D102E06FF0030412E08E
:1035F000009880B109494FF080500860BFF34F8FA9
:10360000BFF36F8F07E000231A46194601F0F4F864
:10361000012800D02C46204638BD000004ED00E013
:103620002DE9FF414FEA01034FF00005EFF305815B
:10363000039549BB40B38027182100244AB316687C
:1036400006B1344696691EB13146761E382E02D236
:103650001679F60703D0002004B0BDE8F081566962
:1036600006B1B708D2F808C0BCF1000F0DD0D5687C
:103670005C2D18D312693AB136B18DE806103A467E
:10368000214601F027FC03900DE0D6685EB912696F
:103690004AB903AACDE90012BAB2214601F0EAFB09
:1036A000012800D003950398D6E700002DE9F041EA
:1036B000134C0F460546E6682068001D00F052FCDA
:1036C000681C07D137B12168BDE8F0410D48091DDC
:1036D00000F098BC20683544B5424560216805D2A9
:1036E000A06BBDE8F041091D00F074BC606B091DC2
:1036F00000F070FCA06A854200D2A562BDE8F081AE
:103700006C000020FC0800202DE9F041054600F087
:1037100085FC2D4CA068401CA06020682B4F10B188
:10372000606930B32BE02560A068012827D100260E
:1037300006EB860007EB800000F03EFC761C382E7E
:10374000F6D3234800F038FC2148143000F034FC54
:103750001F48283000F030FC1D483C3000F02CFCA5
:103760001B48503000F028FC194860631430A063F7
:1037700005E02068E96AC06A884200D82560606A6E
:10378000401C60626864E86A2169884200D920614F
:1037900000EB800007EB8000291D00F033FC00F0F7
:1037A0005DFC606900280CD02068E96AC06A884224
:1037B00007D208494FF080500860BFF34F8FBFF326
:1037C0006F8FBDE8F08100006C0000204C040020E9
:1037D000AC08002004ED00E038B500F01FFC104CF0
:1037E0002068C8B90F4800F0E7FB0E48143000F01D
:1037F000E3FB0C48E060143020610A4B0020F03BF2
:10380000009003F1500210210A2000F07DFF20609B
:1038100010B105A100F0A4FCBDE8384000F01EBCCA
:10382000A8000020000A0020546D72510000000022
:1038300030B4026C0B46002A0BD0C1681144C16041
:103840008468A14201D30168C16030BC1846FCF70E
:10385000F4BD30BC70472DE9F041856B1746044636
:103860000026026C82B1C7B1E068FCF7E6FDE168B2
:10387000206C091AE1602268914202D2A168081AFC
:10388000E060022F16D017E02068A8B9A06801F008
:10389000C5FB06460020A0600EE06068FCF7CDFD89
:1038A000216C606808446060A168884204D3206885
:1038B000606001E005B16D1E6D1CA5633046BDE87A
:1038C000F08110B5044690F8590058B101280CD089
:1038D00002280FD0502080F31188BFF34F8FBFF321
:1038E0006F8FFEE7206B00F0CDFB2046BDE8104057
:1038F00000F0C8BB10BD00000F4840F6B8314207C9
:1039000005D0C01D0C4A20F00700821A891A0B4A04
:1039100000230144C2E900030839183A21F00701E5
:1039200011604B600B600B1AC0E9001393604FF0FD
:103930000040536050617047E0100020D800002024
:10394000144E154CA6F29C474FF08058DFF84C906F
:1039500012E000BF00F062FBF068C568281D00F0AF
:1039600001FBA068401EA0606068401E606000F01F
:1039700075FB2846FFF7A5FF60680028EAD1386884
:103980000128F9D9C9F80080BFF34F8FBFF36F8FBB
:10399000F2E70000E80800206C00002004ED00E0E1
:1039A00070B51D46049C51B1C4F80020C4E90F0154
:1039B0000121204600F0DCFE84F84C5070BD2460EC
:1039C000F4E700002DE9F05F8846DDE90B94154629
:1039D000834691009A460A9EA522206BFCF772FD51
:1039E0006FF00301206B01EB8501084420F007070D
:1039F000780707D0502080F31188BFF34F8FBFF3B3
:103A00006F8FFEE70025B8F1000F0FD05FF00000C8
:103A1000221818F8001082F8341018F8001011B1AC
:103A2000401C1028F4D384F8435001E084F834504B
:103A3000382E00D33726E662C4E91365201D00F056
:103A4000C6FA04F1180000F0C2FA2461C6F1380089
:103A50006462A061656584F85850524659463846FC
:103A600000F06AFA2060B9F1000F01D0C9F80040F7
:103A700000F000B830BCBDE8C09F000030B511496F
:103A800000E011460A688242FBD34B685C1884420E
:103A900003D1406818444860084643681C189442A3
:103AA00009D1084C183C2468A24209D052681A4433
:103AB00042600A6812680260814200D0086030BD2E
:103AC0000460F9E7D800002070B5002441600B4D78
:103AD0000061914206D8D11A8269914206D2011D35
:103AE000286907E09A4203D2994201D3012403E0F6
:103AF000011DE86800F06EFA204670BDA8000020A5
:103B000010B5044600F08AFAA06B28B15FF00004FB
:103B100000F0A4FA204610BD0124F9E730B589B0C1
:103B20003C4D6EE00498002806DADDE90601059AAE
:103B300090470498002864DB069C606910B1201D42
:103B400000F010FA03A800F0D7F8024604980A28FB
:103B500057D2DFE800F00505052D334A05052D3362
:103B600094F8280040F0010084F828000599A06925
:103B7000059B01442046FFF7A7FF68B3216A204652
:103B8000884794F8280040073BD50020009005980E
:103B9000A169002342181946204601F085FBD8B9D7
:103BA000502080F31188BFF34F8FBFF36F8FFEE774
:103BB00014F8280F20F00100207022E094F828006B
:103BC00040F0010084F828000598A06128B1811810
:103BD00013462046FFF778FF13E0502080F311884A
:103BE000BFF34F8FBFF36F8FFEE794F82800810774
:103BF00003D4204600F046FA03E020F0010084F8E8
:103C00002800002204A9286800F054FF002889D168
:103C100009B030BDA80000202DE9FC410F46054643
:103C200000F0F4FB01A800F067F80446019818B111
:103C300001F0A8FABDE8FC81254EAFB130690068FB
:103C4000D0B30027291B3A46306800F0C9FA01F0CA
:103C500099FA0028EED11F494FF080500860BFF359
:103C60004F8FBFF36F8FE5E7A542EBD801F08AFADB
:103C7000F0682746C068C468201D00F073F994F806
:103C80002800410719D5A0692B4641193A4620461C
:103C9000FFF71AFFA8B100200346014600902A460C
:103CA000204601F001FB60B9502080F31188BFF37A
:103CB0004F8FBFF36F8FFEE707E020F0010084F81D
:103CC0002800216A20468847B4E70127BAE70000A8
:103CD000A800002004ED00E00648416B096829B106
:103CE000416BC968C9684968816270474FF0FF310C
:103CF000FAE700006C00002070B5054601F024F9D9
:103D0000064E0446B068844203D200F009F8012050
:103D100000E0002028602046B46070BDA8000020AC
:103D2000F8B5194D20E0C068C4680668201D00F091
:103D300019F9216A2046884794F82800400713D5CE
:103D4000A0693044B04206D924616060211DE86852
:103D500000F040F908E0002003460146009032469A
:103D6000204601F0A1FA38B1E86801680029DAD1EB
:103D70002969C5E90310F8BD502080F31188BFF30D
:103D80004F8FBFF36F8FFEE7A80000200848406800
:103D9000401C4FF0500080F3118804D0BFF34F8FC8
:103DA000BFF36F8FFEE7BFF34F8FBFF36F8FFEE759
:103DB000E0000020074CE068016841B1C0680021C4
:103DC000D0F80000FFF728FFFFF7A8FEF3E7012176
:103DD0000020F7E7A80000202DE9F041044600F09C
:103DE0001DF994F9455004F1240609E0606A48B1D0
:103DF000304601F08FF908B100F042FA6D1E6DB245
:103E0000002DF3DC4FF0FF3684F8456000F026F912
:103E100000F004F994F9445004F1100709E0206916
:103E200048B1384601F076F908B100F029FA6D1E64
:103E30006DB2002DF3DC84F84460BDE8F04100F081
:103E40000DB900002DE9F0410546002700F0DEFA2B
:103E5000324E306808B9FFF74FFD706905424ED108
:103E6000C5B3083568070ED005F00700C0F108009B
:103E70000544680707D0502080F31188BFF34F8FA7
:103E8000BFF36F8FFEE72DB37068854237D82348A4
:103E9000183001460C6801E020460C466168A942D2
:103EA00002D221680029F7D131688C4227D00768F7
:103EB0002168016060680837411B10290FD960191B
:103EC000420708D0502080F31188BFF34F8FBFF313
:103ED0006F8FFEE713E041606560FFF7CFFD61681B
:103EE0007068401A7060B268904200D2B060706929
:103EF00001430020C4E90001F068401CF06001F0BB
:103F000041F9780707D0502080F31188BFF34F8F15
:103F1000BFF36F8FFEE73846BDE8F081C000002098
:103F20000449086818B10868026D521C02650868E7
:103F3000704700006C00002010B5031F4FF0807424
:103F40001C601B1F21F001011960191F044B0B603D
:103F500014390A60091F6FF0020244380A6010BD6C
:103F60008D3D0008D0E9013201699A60D0E9012352
:103F70005A604A68824201D182684A600022026126
:103F80000868401E0860086870470000034B036023
:103F900003F15C000860802010607047280A002050
:103FA000044B036003F15C0008604FF48070106004
:103FB00070470000840C002000F108014FF0FF3230
:103FC000C0E90112C1600161002101607047002158
:103FD0000161704730B50B685A1C02D000F108022D
:103FE00002E0026904E02246546825689D42FAD93D
:103FF00053684B6099608A60516008610168491C90
:10400000016030BD42684A6093688B609368596074
:10401000916008610168491C01607047502080F37D
:104020001188BFF34F8FBFF36F8F0A494868401C58
:10403000486001280CD10848006810F0FF0F07D035
:10404000502080F31188BFF34F8FBFF36F8FFEE7CF
:1040500070470000E000002004ED00E008494868D7
:1040600028B1401E486001D180F31188704750206C
:1040700080F31188BFF34F8FBFF36F8FFEE700000F
:10408000E000002070B500282AD0164DA0F10804E9
:1040900060686969084207D1502080F31188BFF336
:1040A0004F8FBFF36F8FFEE722683AB1502080F345
:1040B0001188BFF34F8FBFF36F8FFEE788436060B7
:1040C00000F0A4F960686968084468602046FFF75A
:1040D000D5FC2869401C2861BDE8704001F052B849
:1040E00070BD0000C00000204FF0E0200021016101
:1040F000816105494FF47A720968B1FBF2F1491EFA
:1041000041610721016170476800002010B5FCF78C
:10411000E9F8114910280ED300F1E02090F8F003DF
:104120000A78904207D2502080F31188BFF34F8F56
:10413000BFF36F8FFEE709480068896800F4E0600C
:10414000884207D9502080F31188BFF34F8FBFF307
:104150006F8FFEE710BD0000E00000200CED00E0D6
:1041600010B5084B002200BF53F832401CB1521C5E
:10417000082AF9D310BD43F8321003EBC20148609E
:1041800010BD00000C04002010B504000AD000F09F
:1041900013F894F8460000280CD12046BDE81040E2
:1041A000FFF770BF502080F31188BFF34F8FBFF32C
:1041B0006F8FFEE710BD0000084A002102EBC1032B
:1041C0005B68834206D1002042F8310002EBC10156
:1041D00048607047491C0829F0D370470C04002040
:1041E00070B515460E460446FFF718FF94F94410C3
:1041F0000020491C01D184F8440094F94510491C61
:1042000001D184F84500FFF729FFA06B28B92A46A1
:10421000314604F1240000F051F82046BDE870401A
:10422000FFF7DABD10B5020014D00F48006B38B1AB
:10423000502080F31188BFF34F8FBFF36F8FFEE7DD
:1042400000F0E4F800211046FFF730FA00F09AFF82
:10425000002807D105494FF080500860BFF34F8F09
:10426000BFF36F8F10BD00006C00002004ED00E074
:1042700002490A6A0260C968416070476C00002008
:1042800001490120C86170476C00002010B50C4640
:1042900050B1094909681831FFF79CFE2046BDE876
:1042A00010400121FFF702BA502080F31188BFF3BC
:1042B0004F8FBFF36F8FFEE76C00002070B5144680
:1042C0000D4668B10A4909681831FFF79BFE0CB129
:1042D0004FF0FF3521462846BDE87040FFF7E6B9AC
:1042E000502080F31188BFF34F8FBFF36F8FFEE72D
:1042F0006C00002070B504003ED0226DA2B1E06CCD
:10430000884200D30146E06A884235D0012A33D181
:104310001A4D2A6894420FD1502080F31188BFF3C0
:104320004F8FBFF36F8FFEE7502080F31188BFF3EC
:104330004F8FBFF36F8FFEE7E162A269002A02DBB5
:10434000C1F13801A1610E4E00EB8000616906EBFE
:104350008000814210D1201DFFF704FEE06A296928
:10436000884200D9286100EB800006EB8000211D07
:10437000BDE87040FFF746BE70BD00006C00002035
:104380004C04002030B587B00024039405AA04A98A
:1043900003A80494FFF7FAFDDDE903010094CDE9D9
:1043A0000110002315A11748059A00F093FD164D42
:1043B0000028E8621FD000F047FF012809D0401C08
:1043C00019D1502080F31188BFF34F8FBFF36F8F47
:1043D000FEE7502080F31188BFF34F8FBFF36F8F3C
:1043E0004FF0FF30A86201206861EC6007B0BDE8C3
:1043F000304000F09BB807B030BD000049444C4548
:1044000000000000413900086C0000200248016BE8
:10441000491C0163704700006C000020164810B56D
:10442000016B11B10121C16110BD0021C1610169A0
:10443000124A01E0B9B1491E01EB810352F8233061
:10444000002BF7D001EB810302EB830202F1080499
:1044500053685B685360A34201D15B685360DA68BC
:104460000260016110BD502080F31188BFF34F8FAF
:10447000BFF36F8FFEE700006C0000204C040020AB
:1044800070B5002501262C46FEF7D6FE641CA4B2AA
:104490000544B442F8DB1E4C95FBF6F0D4ED080A57
:1044A00094ED091AE16980EE810A401A00EE900A43
:1044B000F8EEE00A20EE800ABDEEC00A10EE100A07
:1044C00001F0B0F89FED131B53EC112B00F052FFDD
:1044D00000F01EFF00EE100ADFED100A606920EE0A
:1044E000200ADFED0F0A782820EE200A02D0962855
:1044F0000AD001E030EE600AB5EEC00AF1EE10FA23
:1045000001D29FED080A70BDDFED070AF2E7000057
:10451000000000200000000080842E41C3F51C41F3
:1045200000007A44000000000080D4441CB53748E5
:104530000168374A914207D1502080F31188BFF3B8
:104540004F8FBFF36F8FFEE700683149491E8842E5
:1045500007D1502080F31188BFF34F8FBFF36F8FC7
:10456000FEE72C4908780190FF20087008788DF844
:1045700000009DF800009DF8002000F0F00090423F
:1045800007D0502080F31188BFF34F8FBFF36F8F98
:10459000FEE79DF80000204C00F05000207007203E
:1045A000A06005E09DF8002052008DF80020401E1C
:1045B0009DF800201206F5D4A060032807D05020F3
:1045C00080F31188BFF34F8FBFF36F8FFEE74FF477
:1045D0004070A060019808700C482030016841F4D8
:1045E00070010160016841F070410160FFF77CFDDE
:1045F00000206060FBF73EFE0848016841F0404142
:104600000160FBF723FE00201CBD000000ED00E070
:1046100071C20F4100E400E0E000002034EF00E050
:1046200010B5502080F31188BFF34F8FBFF36F8F09
:1046300000F090FC18B104494FF080500860002051
:1046400080F3118810BD000004ED00E010B50C46A9
:1046500048B184420FD9502080F31188BFF34F8FA7
:10466000BFF36F8FFEE7502080F31188BFF34F8FA9
:10467000BFF36F8FFEE70222002100F024F800282C
:1046800000D0846310BD38B50C4648B184420FD9C0
:10469000502080F31188BFF34F8FBFF36F8FFEE779
:1046A000502080F31188BFF34F8FBFF36F8FFEE769
:1046B0000221134600220091114600F025F800283F
:1046C00000D0846338BDF8B517460E46050013D0F8
:1046D00005FB06F05030FFF7B5FB04000AD00020C0
:1046E00084F8460004F150023B46314628460094C7
:1046F000FFF756F92046F8BD502080F31188BFF32C
:104700004F8FBFF36F8FFEE738B5049D18B153B1DB
:10471000CAB181B120E0502080F31188BFF34F8FE0
:10472000BFF36F8FFEE7502080F31188BFF34F8FE8
:10473000BFF36F8FFEE7502080F31188BFF34F8FD8
:10474000BFF36F8FFEE739B1502080F31188BFF3BC
:104750004F8FBFF36F8FFEE750241C46012384F870
:1047600046302B460094FFF71BF9204638BD000069
:1047700070B50D46040025D0FFF750FCD4E90F209A
:10478000216802FB0011A1600021A1632168616022
:104790000A46D4E90F01401E00FB0121E1602146D9
:1047A0004FF0FF3001F8440F487004F110008DB154
:1047B000FFF702FC04F12400FFF7FEFBFFF74EFCBD
:1047C000012070BD502080F31188BFF34F8FBFF3DD
:1047D0006F8FFEE721690029F0D000F09BFC0028D4
:1047E000ECD004494FF080500860BFF34F8FBFF307
:1047F0006F8FE3E704ED00E02DE9FF4782B01D462F
:104800008A464FF00008040003D0BAF1000F08D028
:1048100011E0502080F31188BFF34F8FBFF36F8FEB
:10482000FEE7206C38B1502080F31188BFF34F8F22
:10483000BFF36F8FFEE7022D0AD1E06B012807D08E
:10484000502080F31188BFF34F8FBFF36F8FFEE7C7
:1048500000F06CFB3F4F4FF000094FF0805648B915
:10486000049838B1502080F31188BFF34F8FBFF305
:104870006F8FFEE7FFF7D2FBA06BE16B884207D397
:10488000022D05D00498D0B1B8F1000F1AD01EE067
:104890002A4651462046FEF7DEFF616A19B104F14F
:1048A000240000F037FC20B13E60BFF34F8FBFF310
:1048B0006F8FFFF7D3FB012006B0BDE8F087FFF74D
:1048C000CDFB22E06846FFF7D3FC4FF00108FFF76D
:1048D000C5FBFFF79BFDFFF7A1FB94F94400401CCB
:1048E00001D184F8449094F94500401C01D184F82A
:1048F0004590FFF7B3FB04A9684600F081FA30B198
:104900002046FFF769FA00F03DFC0020D4E7FFF7EE
:1049100085FBA06BE16B884213D1FFF79FFB04F18D
:1049200010000499FFF7B2FC2046FFF755FA00F09B
:1049300029FC00289ED13E60BFF34F8FBFF36F8FDD
:1049400098E7FFF78BFB2046FFF746FA00F01AFCCA
:1049500090E7000004ED00E02DE9F0471F46904687
:104960008946040003D0B9F1000F08D011E05020AF
:1049700080F31188BFF34F8FBFF36F8FFEE7206C7A
:1049800038B1502080F31188BFF34F8FBFF36F8F82
:10499000FEE7022F0AD1E06B012807D0502080F3F8
:1049A0001188BFF34F8FBFF36F8FFEE7FFF7AEFBAA
:1049B0005020EFF3118680F31188BFF34F8FBFF3C0
:1049C0006F8FA06BE16B884206D3022F04D00020CA
:1049D00086F31188BDE8F08794F94550A06B3A46FC
:1049E00049462046FEF737FF681C04D06D1C84F84A
:1049F00045500120ECE7606A0028FAD004F1240059
:104A000000F088FB0028F4D0B8F1000FF1D00121AC
:104A1000C8F80010EDE770B50E46040009D0206C10
:104A200078B1502080F31188BFF34F8FBFF36F8FA1
:104A3000FEE7502080F31188BFF34F8FBFF36F8FD5
:104A4000FEE7206848B9A06838B1502080F311888B
:104A5000BFF34F8FBFF36F8FFEE7FFF757FB502079
:104A6000EFF3118580F31188BFF34F8FBFF36F8F82
:104A7000A16BE06B884218D994F94500491CA163E9
:104A8000411C04D0401C84F8450001200EE0606AFF
:104A90000028FAD004F1240000F03CFB0028F4D0F8
:104AA000002EF2D001203060EFE7002085F311885E
:104AB00070BD00002DE9F747002683B08A46040048
:104AC00003D0BAF1000F08D011E0502080F3118814
:104AD000BFF34F8FBFF36F8FFEE7206C38B15020CC
:104AE00080F31188BFF34F8FBFF36F8FFEE700F0A5
:104AF0001DFADFF8F4804FF000094FF0805748B9F5
:104B0000059838B1502080F31188BFF34F8FBFF361
:104B10006F8FFEE7FFF782FAA56BC5B151462046BD
:104B2000FEF786FE6D1EA563206950B104F11000EA
:104B300000F0F0FA28B1C8F80070BFF34F8FBFF350
:104B40006F8FFFF78BFA012006B0BDE8F08705985C
:104B500008B11EB106E0FFF781FA27E06846FFF7CB
:104B600087FB0126FFF77AFAFFF750FCFFF756FAAA
:104B700094F94400401C01D184F8449094F9450014
:104B8000401C01D184F84590FFF768FA05A96846F2
:104B900000F036F9002820460AD0FFF71DF900F092
:104BA000F1FA2046FEF7ACFF0028B3D00020CBE797
:104BB000FEF7A6FF90B104F124000599FFF766FB0C
:104BC0002046FFF709F900F0DDFA0028A2D1C8F865
:104BD0000070BFF34F8FBFF36F8F9BE72046FFF747
:104BE000FBF800F0CFFA95E704ED00E02DE9F0477F
:104BF00090468946040003D0B9F1000F08D011E0B7
:104C0000502080F31188BFF34F8FBFF36F8FFEE703
:104C1000206C38B1502080F31188BFF34F8FBFF361
:104C20006F8FFEE7FFF772FA5020EFF3118680F3E3
:104C30001188BFF34F8FBFF36F8FA76BF7B194F954
:104C4000445049462046FEF7F3FD7F1EA763681CCB
:104C500004D06D1C84F84450012010E02069002825
:104C6000FAD004F1100000F055FA0028F4D0B8F1A1
:104C7000000FF1D00121C8F80010EDE7002086F305
:104C80001188BDE8F08700002DE9F343002683B0CA
:104C90000400354609D0206C78B1502080F311888B
:104CA000BFF34F8FBFF36F8FFEE7502080F3118863
:104CB000BFF34F8FBFF36F8FFEE700F037F9DFF8D8
:104CC0003C814FF000094FF0805748B9049838B143
:104CD000502080F31188BFF34F8FBFF36F8FFEE733
:104CE000FFF79CF9A06BC8B1401EA063206810B903
:104CF000FFF716F9A060206950B104F1100000F030
:104D000009FA28B1C8F80070BFF34F8FBFF36F8F57
:104D1000FFF7A4F9012005B0BDE8F083049808B1BD
:104D200066B10FE03DB1502080F31188BFF34F8F83
:104D3000BFF36F8FFEE7FFF791F95DE06846FFF77D
:104D400097FA0126FFF78AF9FFF760FBFFF766F98C
:104D500094F94400401C01D184F8449094F9450032
:104D6000401C01D184F84590FFF778F904A9684602
:104D700000F046F80028204612D0FFF72DF800F08A
:104D800001FA2046FEF7BCFE0028A9D09DB3FFF72C
:104D900045F9606A50B3206B0068C0F1380126E025
:104DA000FEF7AEFEE0B1206838B9FFF737F9A0682A
:104DB00000F074F90546FFF751F904F12400049955
:104DC000FFF764FA2046FFF707F800F0DBF9002848
:104DD00086D1C8F80070BFF34F8FBFF36F8F7FE7A6
:104DE0002046FEF7F9FF00F0CDF979E70021A06831
:104DF000FFF780FA9FE7FFE700208CE704ED00E073
:104E00002DE9F0410C46050011D0C4B1FFF706F9B9
:104E1000174BDA686E682068911B471C17D02F6803
:104E20001B6A9F4219D0964217D8012410E05020E7
:104E300080F31188BFF34F8FBFF36F8FFEE75020D1
:104E400080F31188BFF34F8FBFF36F8FFEE700240D
:104E5000FFF704F92046BDE8F081884205D9401AE1
:104E600020602846FFF704FAF1E700202060DCE725
:104E70006C0000202DE9FF5F8346DDE90E8799462F
:104E800016468A469000FEF7DDFF05001CD05C2028
:104E9000FEF7D8FF040014D00020256384F85900E1
:104EA000CDE90240CDE900874B463246514658468F
:104EB000FEF788FD2046FEF727FC012004B000F035
:104EC00006B82846FFF7DEF84FF0FF30F6E730BCB3
:104ED000BDE8C09FF0B585B0DDE90B640A9DA6B1C1
:104EE000DCB15C2700972663022684F8596000260F
:104EF00004AFCDE90246CDE90057FEF763FD204639
:104F0000FEF702FC049805B0F0BD502080F3118834
:104F1000BFF34F8FBFF36F8FFEE7502080F31188F0
:104F2000BFF34F8FBFF36F8FFEE700000548416965
:104F300019B1006B18B100207047012070470220A2
:104F4000704700006C0000200148C06870470000F6
:104F50006C0000202DE9F0412E4C0027206B28B179
:104F6000A069401CA0613846BDE8F081E668761C67
:104F7000E66013D1606B006838B1502080F311886F
:104F8000BFF34F8FBFF36F8FFEE7606BA16B616361
:104F9000A063206A401C2062FEF79EFEA06ADFF834
:104FA0007880864209D3606B0068A0B1606BC068EE
:104FB000C5686868864211D2A0622068C06A00EBAA
:104FC000800158F82100012800D90127E069002854
:104FD000C9D00127C7E74FF0FF30EDE7281DFEF7E6
:104FE000C1FFA86A18B105F11800FEF7BBFFE86A17
:104FF0002169884200D9206100EB800108EB810023
:10500000291DFEF7FFFFE86A2168C96A8842CAD3F2
:105010000127C8E76C0000204C04002070B5040094
:105020004FF0000133D01B4D2868844207D0502038
:1050300080F31188BFF34F8FBFF36F8FFEE7206DB2
:1050400038B1401E2065E36CE26A9A421FD040B13D
:105050001DE0502080F31188BFF34F8FBFF36F8F97
:10506000FEE7201DFEF77EFFE06CE062C0F1380035
:10507000A061E06A2969884200D92861064900EBED
:10508000800001EB8000211DFEF7BCFF01210846D6
:1050900070BD00006C0000204C04002070B50400BE
:1050A0004FF000002BD0194DE16A2A68D26A914274
:1050B00026D2A069002804DB2868C06AC0F1380045
:1050C000A061134E01EB8101606906EB810188420A
:1050D00011D1201DFEF746FF2868C06AE0622969E9
:1050E000884200D9286100EB800006EB8000211D7A
:1050F000FEF788FF02E02868C06AE062012070BD08
:10510000E16C2A68D26A9142F8D370BD6C0000202D
:105110004C04002070B5C068C46854B104F1180094
:105120000646FEF71FFF144D286B50B13146134859
:1051300015E0502080F31188BFF34F8FBFF36F8FBE
:10514000FEE7201DFEF70EFFE06A2969884200D9BC
:1051500028610B4900EB800001EB8000211DFEF768
:1051600051FFE06A2968C96A884202D90120E861D2
:1051700070BD002070BD00006C000020D40800202D
:105180004C0400202DE9F0472C4D00242746286BC5
:1051900038B1FEF743FF286B401E2863286B40B1EF
:1051A00046E0502080F31188BFF34F8FBFF36F8F1D
:1051B000FEE7A968224E0120D1B3A6F59169804689
:1051C0003068E0B1F068C46804F11800FEF7CAFE68
:1051D000201DFEF7C7FEE06A2969884200D92861D0
:1051E00000EB800109EB8100211DFEF70BFFE06A57
:1051F0002968C96A8842E3D3C5F81C80E0E70CB18E
:10520000FEF76AFDAC694CB14FEA0806FFF7A2FE53
:1052100000B1EE61641EF9D10020A861E86938B1DF
:105220000849012738070860BFF34F8FBFF36F8F1E
:10523000FEF714FF3846BDE8F08700006C00002040
:10524000D408002004ED00E010B586B0FEF7C4FAE3
:10525000114C2068B8B100200390049005AA04A95D
:1052600003A8FEF79DFEDDE9032102208DE807007B
:1052700000230AA10B48059AFFF72CFE606010B1CD
:1052800006B0012010BD502080F31188BFF34F8F6E
:10529000BFF36F8FFEE70000A8000020546D72205E
:1052A00053766300B53D00082DE9FF411E461346C5
:1052B00002000A9D4FF0000016D0144C2768002F02
:1052C0000FD0CDE900130292062917DAFFF72EFE60
:1052D00002284FF000030FD0002269462068FFF734
:1052E0008BFA04B0BDE8F081502080F31188BFF341
:1052F0004F8FBFF36F8FFEE72A46EEE7002332465B
:1053000069463846FFF728FBEBE70000A8000020BD
:1053100021F00042A2F16052B2F5801F01F000437B
:1053200028BFD2F17F6C0BD95FEA001C43EAC202AE
:1053300042EB507018BF704728BF20F00100704743
:10534000B2F5801FBCBF184670474FEA410C1CF5F0
:10535000001F02D2084600F0D5B970B500F079F907
:1053600000000089FFF7F6BF4FF00040A0F5800075
:10537000704700002DE9C04130B4DFF8A0C23CEA1C
:10538000111418BF3CEA131400F0EC8081EA030505
:105390001CEA111444EAD57418BF1CEA131500F076
:1053A000C780A4EB05044FF0004545EAC12145EA5A
:1053B000C32341EA505143EA525304F17F749942A6
:1053C00004F500344FEAC0204FEAC22208BF9042E1
:1053D00000F09C804FEA13650FF24016765D4FEAAD
:1053E000134506FB05F7C7F1807706FB07F74FEA81
:1053F000D737A7FB03687642C8F58038A7FB06CEEF
:1054000038BFA8F1010807FB08E64FF0000EA6FB25
:10541000028CE6FB03CEDCF1000CCEF1004E38BF6F
:10542000AEF1010EA6FB0C584FF000074FF000053F
:10543000E6FB0E87A1FB08C6A0FB07CE16EB0E0607
:1054400045F10005E1FB076515F1E04E7EBFA4F5CF
:1054500080345FEA46066D4116F1800745F100058C
:105460004FEA17274FEA066647EA0567A6F1DE46C8
:10547000B6F1805F4FEA15251FD9384624F0010C9C
:1054800005EBC471BCF1FE6F01EB0C1102D8F0BC4E
:10549000BDE8008124425CBF01F5801E9EEAC47F06
:1054A00002D4F0BCBDE80081244238D4F0BCA1F1A4
:1054B000C041BDE8004100F01AB94FEAD22242EAE9
:1054C00043524FEAD323A7FB02864FEAD02040EA9B
:1054D000415007FB03661EEA0E0F4FEAD12105FB80
:1054E000026658BFA6EB0056B6EB00564FEA520EC6
:1054F0004EEAC37E18EB0E0E56EB530EBDD518EBDD
:1055000002085E417F1C55F10005B6E74FF4801597
:105510004FF000074FF000064FF00008ADE7F0BC79
:105520004FF0000001F1C04101F00041BDE80081F1
:1055300011EA0C1F0CEA131500D00CE013EA0C1F43
:1055400000F025804FF00000F0BC81EA030101F07B
:105550000041BDE80081F0BCBDE8004181EA0301E3
:1055600000F0C5B8F0BCBDE8004170B500F071F8BE
:10557000097EFC3E00F007B881EA03014FF000000D
:1055800001F00041704781EA030100F0B0B8F0BCBF
:10559000BDE800414FF0000021497047FFFDFBF9D5
:1055A000F7F5F4F2F0EEEDEBE9E8E6E4E3E1E0DE56
:1055B000DDDBDAD8D7D5D4D3D1D0CFCDCCCBCAC8C8
:1055C000C7C6C5C4C2C1C0BFBEBDBCBBBAB9B8B7EF
:1055D000B6B5B4B3B2B1B0AFAEADACABAAA9A8A8E2
:1055E000A7A6A5A4A3A3A2A1A09F9F9E9D9C9C9BB0
:1055F0009A9999989797969595949393929191905B
:105600008F8F8E8E8D8C8C8B8B8A898988888787EB
:105610008685858484838382828181800000FF0760
:105620000000F87F10F0004248BF4042B0FA80F31B
:1056300010FA03F10AD0C3F11D0303F580634FEAAA
:10564000415002EB035202EBD12170474FF00000B2
:1056500070470EF1020E2EF0030E5EF8046B364218
:1056600005D4012A43EB030515F5001F12D80128C4
:1056700041EB010C1CF5001F0CD80ED14FEAD17C78
:1056800015F5001F0CEB4C0C0CF1020C08BF4CEB99
:10569000D37C04E04FF0080C01E04FEAD37C0CEB24
:1056A0004C0526FA05F606F00706B6F1040C06D2FC
:1056B0000EEB860CBDE870404CF0010C6047DFE853
:1056C0000CF0090B02024FF000414FF00000A1F571
:1056D000002170BD19461046012851EB010418BF86
:1056E000D4F5001484BF002001F0004170BD08080B
:1056F000A0F500114FEA310170474FF04070E1EE24
:10570000100A7047FF2141EAD050C00570470000E1
:1057100044580008000000000000000000000000E5
:10572000000000000002000028000000000000004F
:1057300000000000385800080000000000000000D1
:105740000000000000000000000200001000000047
:1057500000000000000000002C58000800000000BD
:105760000000000000000000000000000002000037
:1057700010000000000000000000000018580008A1
:1057800000000000000000000000000008580008B1
:10579000000000000000000000000000F4570008B6
:1057A00000000000000000000000000000000000F9
:1057B000000000000102030406070809A08601009A
:1057C000400D0300801A060000350C0040420F0017
:1057D00080841E0000093D0000127A000024F400BD
:1057E00000366E010048E801006CDC020000000099
:1057F000010203044C6F61645F43656C6C5F536529
:105800006D6170686F726500536572766F5F536586
:105810006D6170686F726500537465707065725F5A
:1058200053656D6170686F72650000004C6F616454
:105830005F43656C6C000000536572766F5F4D6F5F
:10584000746F7200537465707065725F4D6F746F22
:10585000720000007458000800000020EC000000F6
:10586000C801000860590008EC0000200C2200006C
:10587000E4010008000000000A0000110000000020
:1058800074400000983A00005A0000000000000038
:10589000D00F79000050C34700E3314700000000FB
:1058A00000000000000000000000000000000000F8
:1058B00000000000000000005AA507821000000050
:1058C00000005AA50B8203105AA501000101000037
:1058D00001000000100000000000000000093D0071
:1058E00000000000000000000000000000000000B8
:1058F00000000000000000000000000000000000A8
:105900000000000000000000000000000000000097
:105910000000000000000000000000000000000087
:105920000000000000000000000000000000000077
:105930000000000000000000000000000000000067
:105940000000000000000000000000000000000057
:105950000000000000000000AAAAAAAA000000009F
:040000050800018D61
:00000001FF
